:020000040800F2
:10000000C0060020C500000875120008391100085C
:1000100000000000000000000000000000000000E0
:10002000000000000000000000000000CF170008E2
:100030000000000000000000B1150008D117000802
:10004000D700000800000000D7000008D700000813
:10005000D7000008D7000008D7000008D700000824
:1000600000000000D7000008D7000008D7000008F3
:10007000D7000008D7000008D700000800000000E3
:10008000D70000080000000000000000D7000008B2
:1000900000000000D7000008D7000008D7000008C3
:1000A00000000000D700000800000000D700000892
:1000B0000348854600F060F800480047F91C000836
:1000C000C00600200448804704480047FEE7FEE7DA
:1000D000FEE7FEE7FEE7FEE739180008B10000087A
:1000E00030B50B46014600202022012409E00D46D0
:1000F000D5409D4205D31D469540491B2546954058
:1001000040191546521E002DF1DC30BD10B5202AD5
:1001100004DB0846203AD040002110BD0B46D340F6
:10012000D0402024A21A91400843194610BD03462E
:100130000B439B0703D009E008C9121F08C0042A1B
:10014000FAD203E00B780370401C491C521EF9D20E
:100150007047D2B201E00270401C491EFBD27047CA
:100160000022F6E710B513460A4604461946FFF783
:10017000F0FF204610BD0000064C0125064E05E0AC
:10018000E36807CC2B430C3C98471034B442F7D3B8
:10019000FFF792FF542200087422000801494160D1
:1001A00000207047051B000806490020C86106486A
:1001B0000169042211430161016940221143016177
:1001C00070470000A002002000200240064A0021E3
:1001D000D16106490A6902231A430A614861086924
:1001E0004022104308617047A00200200020024016
:1001F00010B5054B0022DA61044A13690124234338
:100200001361018010BD0000A00200200020024008
:1002100010B50B4A0020D168CB060A4904D5C8693D
:1002200002231843C8611020D3685B0705D5CB694A
:1002300001242343CB6104210843D06010BD00009A
:1002400000200240A002002070B5054600F086F9AB
:100250000646104C0AE0681C08D0002D04D000F0BF
:100260007DF9801BA84201D9032070BDE068C0075A
:10027000F1D1E068800601D52020E060E068C0068A
:1002800002D4E068400703D5FFF7C2FF012070BD2C
:10029000002070BD0020024010B5044600F09CF81C
:1002A000034820600348606003486061002010BD7F
:1002B000F51B0008CD1B0008411B0008F8B50546DA
:1002C00023480F46017E012601290BD0012101762A
:1002D0002868204C012807D02046FFF7B5FF0028EA
:1002E00013D030E00220F8BD2046FFF7ADFF002814
:1002F00029D1FFF759FF2046FFF7A6FF064616480B
:1003000001690422914301611DE00020C04338606F
:100310006C6812E02046FFF759FF0E48FFF794FF84
:1003200006460D48026902218A430261002E01D06F
:100330003C6008E0012080022418A86881026868F7
:100340000818A042E6D80248002101763046F8BDE0
:10035000A002002050C3000000200240F0B51FB4EE
:1003600007461A480024017E15461E46012907D07B
:10037000012101761648FFF767FF002803D020E02F
:10038000022005B0F0BD012F02D0022F00D00427BB
:10039000220128463146FFF7B9FE81B2019862007A
:1003A0001018FFF725FF0A48FFF74EFF09490A69B1
:1003B000520852000A61002803D1641CE4B2BC4216
:1003C000E6D3024900220A76DBE70000A002002003
:1003D00050C300000020024005480169090605D508
:1003E0000449416004494160002070470120704782
:1003F0000020024023016745AB89EFCDF8B500230B
:100400008DE001249C40A44622407DD04C68022C03
:1004100001D0122C0CD1DC08A40027183C6A5D071F
:10042000ED0E0F26AE40B4430E69AE4026433E6249
:1004300005685E000324B4400F79A543BF07BF0FD2
:10044000B7402F4307604D68012D05D0022D03D022
:10045000112D01D0122D0ED18568CF68A543B7406C
:100460002F43876047686546AF430D79ED06ED0F72
:100470009D403D434560C568A5438C68B4402C430E
:10048000C4604C68E40049D5284CA5690126354371
:10049000A561A4699D0834400094254CAD002F1936
:1004A000BC689D072E0F0F25B540AC430925ED060E
:1004B000A84201D100250FE01E4DA84201D101251F
:1004C0000AE01D4DA84201D1022505E01B4DA842BE
:1004D00001D1032500E00525B5402543BD60184C3A
:1004E00025684E689543F60300D515432560656879
:1004F0004E689543B60300D515436560A5684E6800
:100500009543F60202D500E008E01543A560E568D2
:100510004E689543B60200D51543E5605B1C0A683A
:100520001446DC4000D06CE7F8BD0000001002402B
:10053000000001400004004800080048000C00488A
:10054000000401400069084000D001207047002AE3
:1005500001D08161704781627047000001480068E6
:10056000704700003C00002002480168491C0160FF
:10057000704700003C00002010B5064801681022BA
:1005800011430160002000F007F800F017F8002088
:1005900010BD00000020024010B5044600F03EF9F6
:1005A0007D21C900FFF79CFD00F0E2FC00222146FE
:1005B000501E00F017F8002010BD000008B50848D4
:1005C0008169012211438161816911400091C269F1
:1005D00001040A43C261C0690840009008BD0000E0
:1005E0000010024010B500F0C1FF10BDBFF34F8FE7
:1005F00004490348C860BFF34F8F00BFFDE7000008
:100600000400FA0500ED00E0F8B505460068354C39
:10061000C00352D5E0690026C00007D4E169200478
:100620000143E161E1690140012600912E48016822
:10063000C90510D40168821511430160FFF78EFFD0
:10064000074604E0FFF78AFFC01B642824D8264829
:100650000068C005F6D5206A03273F02384020D045
:100660006968394081421CD0206A226AB84301215E
:1006700009040A432262226A8A4322622062C00776
:100680000FD0FFF76BFF009008E0FFF767FF0099BE
:10069000411A1648814201D90320F8BD206A80071B
:1006A000F3D5206A6968B84308432062002E04D05D
:1006B000E169012000078143E1612878C00705D086
:1006C000206BA96880088000084320632878800692
:1006D00005D5206B10218843E9680843206300207A
:1006E000F8BD0000001002400070004088130000B8
:1006F000F8B5054644480E460068C007C00FB04232
:100700000AD2414801684908490031430160006844
:10071000C007C00FB0425CD128783C4C800705D59B
:100720006068F0218843A968084360602878C007A2
:100730003FD06868012813D02168022813D08907A8
:10074000002946DA61688908890001436160FFF782
:1007500005FF6968074601290DD0022917D024E05A
:1007600021688903ECE78901EAE7FFF7F7FEC11B7F
:100770002748814217D860680007800F0128F4D10C
:1007800017E0FFF7EBFEC11B214881420BD86068E0
:100790000007800F0228F4D10BE0FFF7DFFEC11B3A
:1007A0001B48814201D90320F8BD60680007800F13
:1007B000F3D115480168C907C90FB1420BD90168C7
:1007C00049084900314301600068C007C00FB042CA
:1007D00001D00120F8BD2878400706D560680721C0
:1007E00009028843E9680843606000F02DF86168F9
:1007F000084A0906090F515CC840074908600020F3
:10080000FFF7CAFE0020F8BD0020024000100240A1
:10081000881300003C2200084000002001480068C6
:1008200070470000400000200448054900684968FE
:10083000044A4905490F515CC840704740000020F8
:10084000001002404C22000810B512A30FCB88B054
:100850006C460FC413A30FCB0FC416494A680C2073
:10086000134603401448042B0FD0082B0DD19302DC
:100870001B0F6C46E45CC96A04AB0907090F595C9D
:10088000D20304D5FFF72CFC604308B010BD0B4821
:100890006043FAE702030405060708090A0B0C0D7A
:1008A0000E0F10100102030405060708090A0B0CBD
:1008B0000D0E0F100010024000127A0000093D00DA
:1008C000FEB504460078D04DC00747D068680007E1
:1008D000800F012807D068680007800F022809D11F
:1008E0006868C00306D52868800337D5606800288B
:1008F0007ED033E0012062680004012A11D081001B
:10090000002A01D0052A10D02A6882432A6028686C
:10091000884328606068002814D0FFF71FFE064651
:100920000CE0296801432960F4E72A680A432A6039
:10093000F7E7FFF713FE801B64286FD82868800351
:10094000F7D50BE0FFF70AFE064604E0FFF706FEC8
:10095000801B6428F1D828688003F7D4207801260A
:10096000800700283BDA68680007800F07D06868B6
:100970000007800F022809D16868C00306D42868E0
:10098000800715D5E068012832D111E0E068002821
:10099000286815D030432860FFF7E0FD074604E0E3
:1009A000FFF7DCFDC01B0228C7D828688007F7D5F1
:1009B0002868F82188432169C900084328600EE0AF
:1009C000400840002860FFF7C9FD074604E0FFF734
:1009D000C5FDC01B0228B0D828688007F7D420784E
:1009E000000724D5E0690028686A10D0304300E091
:1009F00008E16862FFF7B2FD074604E0FFF7AEFDCD
:100A0000C01B022899D8686A8007F7D50FE0400814
:100A100040006862FFF7A2FD074605E09DE0FFF792
:100A20009DFDC01B022888D8686A8007F7D420780B
:100A300004274007002860DA00200190E869C00020
:100A400008D4E969B8060143E961E9690140012078
:100A5000009101906D480168C90511D401688215A3
:100A600011430160FFF77AFD009005E0FFF776FD86
:100A70000099401A642870D864480068C005F5D50C
:100A8000A06801280AD0002801D0052810D0286AC3
:100A9000400840002862286AB84301E0286A3043D1
:100AA0002862A068002812D0FFF758FD00900AE0E5
:100AB000286A38432862F1E7FFF750FD0099411A90
:100AC0005348814249D8286A8007F5D50DE0FFF7E1
:100AD00045FD009006E0FFF741FD0099411A4C48A2
:100AE00081423AD8286A8007F5D40198002804D0BA
:100AF000E969012000078143E9612078C00635D506
:100B0000606901280CD0401D686B23D038436863AE
:100B1000686B400840006863FFF720FD064622E04E
:100B2000686B38436863686B30436863FFF716FD92
:100B3000064604E0FFF712FD801B02285BD8686BB5
:100B40008007F7D5686BF8218843A169C90008437D
:100B500068630BE0B8436863F4E74CE0FFF7FEFC22
:100B6000801B022847D8686B8007F7D4206A0028CA
:100B700046D069680907890F022943D00126360645
:100B80000228286805D0B0432860FFF7E7FC044638
:100B900033E0B0432860FFF7E1FC074604E0FFF7CD
:100BA000DDFCC01B022826D828688001F7D4E86A3B
:100BB000E16A000900010843E862616AA06A08432B
:100BC00069683D22120491430843686028683043F5
:100BD0002860FFF7C3FC044604E0FFF7BFFC001BDE
:100BE000022808D828688001F7D509E0FFF7B6FC8D
:100BF000001B022801D90320FEBD28688001F5D41E
:100C00000020FEBD0120FEBD00100240007000402B
:100C100088130000F8B5040007D0002625464035AB
:100C2000A662687F002802D005E00120F8BD2E777B
:100C3000204600F04BF802236B77206801684022C1
:100C4000914301600721E0680902884201D900222E
:100C500001E0012212030F273F02B84202D088426E
:100C600000D0A662276B002F05D1884201D92363EB
:100C700001E001202063A16860686369084321697D
:100C8000194308430123A1695B0219400843E16944
:100C90000843216A0843A16A084321680860616B20
:100CA000606AA36908431B0C0427E1683B401943B1
:100CB00008432168104348602068C1697A02914363
:100CC000C1612666012068770020F8BD10B586B0A6
:100CD000044614216846FFF743FA11492068884208
:100CE0001CD11048826981140A43826182690A40DA
:100CF0000592426949010A434261406908400590F2
:100D0000E020009002200190002103200390029136
:100D1000049109206946C006FFF770FB06B010BDBC
:100D20000030014000100240FFB5044683B00120AE
:100D3000254640350090287F00270E4601280FD019
:100D400001202877FFF70AFC0190687F616801287D
:100D50000DD0CA1FFD3A08D1A168002905D102E0D3
:100D6000022007B0F0BD042801D00227FAE0002ECF
:100D70007CD005980028FBD006980028F8D0687F22
:100D8000042801D005206877002020660599216499
:100D90000699E9800699A980A6630699E1870699D4
:100DA000A187E06420650723E1681B02994202D80D
:100DB000E888012806D920684268012109038A438E
:100DC000426005E02068416801221203114341603E
:100DD00020680168490603D401684022114301607C
:100DE000E1686068994242D9002802D0E08F01286A
:100DF00035D121683088C860E08F401EE087B61C7E
:100E00002DE0009800280ED0E08F00280BD020683D
:100E10008168890707D53188C160E08F401EE0876F
:100E20000020B61C0090E88800280ED02068816859
:100E3000C9070AD0C068059908800598801C0590EC
:100E4000E888401EE880012000900C98401C06D0E5
:100E5000FFF784FB0199411A0C9881426DD2E08F13
:100E60000028CED1E8880028CBD16EE079E00028B8
:100E700002D0E08F012862D1E08F012807D92168D4
:100E80003088C860E08F801EE087B61C57E021687C
:100E900030780873E08F401EE087761C4FE00098A2
:100EA000002818D0E08F002815D0206881688907B5
:100EB00011D5E18F012906D93188C160E08F801EEC
:100EC000E087B61C05E031780173E08F401EE087B3
:100ED000761C00200090E888002824D020688168D3
:100EE000C90720D0E988012912D9C068059908806E
:100EF0000598801C0590E888801EE880E888012815
:100F00000FD820684168012212031143416008E0B4
:100F1000017B059801700598401C0590E888401EEB
:100F2000E880012000900C98401C08D0FFF716FBC9
:100F30000199401A0C99884201D3032712E0E08FEF
:100F40000028ACD1E8880028A9D12046019A0C9944
:100F500000F086FB002801D020202066206E0028AB
:100F600000D0012701206877002028773846F8E66E
:100F7000094910B5401E884201D9012010BD074C17
:100F800060610321081F00F0F1FA0020A061072032
:100F90002061002010BD0000FFFFFF0000E000E026
:100FA00070B5040005D025466035687A002802D067
:100FB00006E0012070BD00202872204600F026F8CF
:100FC00024206872206801684908490001602046B1
:100FD00000F0CEFC0128EDD0606A002802D0204647
:100FE00000F058FC206841680122D2029143416020
:100FF000206881680822914381602068016801228D
:1010000011430160204600F0AAFC70BD10B586B007
:10101000044614216846FFF7A3F813492068884264
:101020001FD112488269012189030A4382618269C2
:101030000A4005924269C9000A434261406908407A
:1010400005900320400200900220019000200290B1
:10105000032003900120049009206946C006FFF791
:10106000CDF906B010BD000000380140001002406C
:10107000FFB5064604466036707A83B00D462028D8
:1010800058D1002D0CD00598002809D00120A16866
:101090000003814207D12069002804D1E80702D06B
:1010A000012007B0F0BD307A012843D00120307212
:1010B0000020E06621207072FFF750FA0190274669
:1010C0004037059838820598788218E0788A401E63
:1010D000788206980090002280212046019B00F033
:1010E000D1FC002818D10120A1680003814202D15F
:1010F0002069002812D02168287808856D1C788A1C
:101100000028E3D106980090002240212046019B50
:1011100000F0B8FC002808D00320C2E72888216826
:10112000C005C00D0885AD1CE9E7202070720020C5
:101130003072B6E70220B4E7FEE70000F0B587B0F2
:1011400014216846FFF70CF82A48426901218905F5
:101150000A43426142690A400592426949110A43C1
:10116000426142690A400592426949000A4342616C
:101170004069214F08400590002201213846FFF7C1
:10118000E6F9092001221821C006FFF7E0F9012243
:1011900002211A48FFF7DBF901240225002601AAE3
:1011A000009470C269463846FFF728F900956946F1
:1011B000384601960295FFF721F909206946C006D5
:1011C000019600950294FFF719F918200090092064
:1011D0000194029469460394C006FFF70FF9019445
:1011E00002946946054800950394FFF707F907B094
:1011F000F0BD000000100240001400480004004848
:1012000010B50F480D490160FF21053141600021F3
:101210000722816012020161C26001224161520213
:101220008261016220224162C26181620722016300
:10123000C2624163FFF7EEFC10BD000000300140C8
:101240004400002010B50A4808490160E121490224
:10125000416000218160C16001618161C1610C2236
:10126000016242614162FFF79BFE10BD0038014000
:10127000A8000020704770B570210840044600F0B7
:101280004CF809250646ED06002208212846FFF7FE
:101290005EF9272000F0DEFC2046304300F0DAFC47
:1012A000012208212846FFF752F900F036F870BDF8
:1012B000F8B5092715460E460446FF060022082108
:1012C0003846FFF744F9204600F0C4FC002405E04E
:1012D000FF2000F0BFFC3055641CE4B2AC42F7D3F1
:1012E000012208213846FFF732F9F8BD70B509250B
:1012F0000446ED06002208212846FFF728F920467B
:1013000000F0A8FCFF2000F0A5FC04460122082103
:101310002846FFF71CF9204670BD70B50925ED067B
:10132000002208212846FFF712F9072000F092FC5E
:101330000446012208212846FFF709F9204670BD1E
:1013400070B509240546E406002208212046FFF76F
:10135000FEF8E22000F07EFC012208212046FFF783
:10136000F6F820698007C017401CFAD00720FFF765
:10137000BDFF04460146072000F0B1F860060ED517
:101380006020FFF7B3FF0446024629466120FFF7BD
:101390008FFFFF21E22000F0A2F8204670BD002060
:1013A00070BD10B5052A00D90522052800D90520F1
:1013B0000A30C0B200F074F810BD10B50446062023
:1013C000FFF794FFD72210400146002C04D0012CD7
:1013D00004D0022C04D005E0202002E0114001E0FE
:1013E00008200143062000F07AF810BD10B5052949
:1013F00000D905210A460146102000F051F810BD21
:10140000F7B509240E4607460025E4062A460821BA
:101410002046FFF79CF8E12000F01CFC0122082187
:101420002046FFF794F8002210212046FFF78FF89E
:1014300032463946A02000F033F801221021204620
:10144000FFF785F8FF20F5300DE029466D1CADB2A1
:10145000814208D111480178029800F0AAF80020D2
:1014600000F0EAF804E021698907C917491CECD0AB
:101470000720FFF73BFF04460146072000F02FF846
:10148000E00605D5FF21E12000F029F81020FEBD7F
:10149000A00601D52020FEBDFF20FEBD00000020DB
:1014A000F8B5092715460E460446FF060022082116
:1014B0003846FFF74CF820462021084300F0CAFBCD
:1014C000002404E0305D00F0C5FB641CE4B2AC42D3
:1014D000F8D3012208213846FFF739F8F8BD70B576
:1014E00009250E460446ED06002208212846FFF78E
:1014F0002EF820462021084300F0ACFB304600F0D7
:10150000A9FB012208212846FFF721F870BD000041
:101510007FB514A103C900900020019102900446F8
:101520006E4602AD0390052269461020FFF7B8FF12
:10153000052202A91020FFF7BBFE0020315C2A5CC7
:10154000914203D1401CC0B20528F7D3052807D02B
:10155000641CE4B2052CE6D90020C04304B070BD81
:101560000020FBE7A5A5A5A5A50000008307FF2295
:10157000DB0E9A408907090E994000280BDA000714
:10158000000F0838830808489B001818C369934364
:101590000B43C3617047830804489B001B181868FD
:1015A000904308431860704700ED00E000E400E05D
:1015B000704770B504460D46092001221021C0066F
:1015C000FEF7C5FF7020FFF756FE01211C20FFF734
:1015D00086FF07211D20FFF782FF1C20FFF786FEF4
:1015E0001D20FFF783FE0A210020FFF778FF01216D
:1015F0000846FFF774FF01210220FFF770FF032167
:101600000846FFF76CFFFF210420FFF768FF29461B
:101610000520FFF764FF26210620FFF760FF052164
:101620002046FFF7E3FE052221460020FFF7B9FE22
:101630000120FFF7C2FE70BD10B504460020FFF781
:1016400055FE0146002C02D0012C03D004E04108D5
:10165000490001E0012001430020FFF740FF10BDD9
:10166000F8B50F460B4615460092032104460022AA
:10167000C90200F01BF82026002812D13B460022A8
:1016800080212046009500F05CF8002809D1032154
:101690003B46002249022046009500F007F800284A
:1016A00003D0206E304320660320F8BDF8B51D46F8
:1016B00017460E4604463DE0032149028E4205D1FD
:1016C000002F03D1017B684601700078681C31D07F
:1016D000002D05D0FEF742FF0699401AA84229D3F3
:1016E00020684168E022914341606068C11FFD3974
:1016F0000CD10121A068C903884202D04911884257
:1017000004D1206801684022914301600120A16A50
:101710004003814207D121680A6882430A60216838
:101720000A6802430A600120403460770020207775
:101730000320F8BD206881683140B942BCD1002047
:10174000F8BDF8B51D4617460E46044633E0681C42
:1017500031D0002D05D0FEF701FF0699401AA842AE
:1017600029D320684168E022914341606068C11F2D
:10177000FD390CD10121A068C903884202D049116A
:10178000884204D120680168402291430160012011
:10179000A16A4003814207D121680A6882430A6036
:1017A00021680A6802430A60012040346077002003
:1017B00020770320F8BD206881683046884304D034
:1017C0000020B842C3D10020F8BD0120F9E77047DE
:1017D00010B5FEF7C9FE00F0FBFB10BD70B594B06C
:1017E00030216846FEF7BCFC00240E9413941020B0
:1017F0000994022504900D940F940520129401265B
:101800000095C0040C94109403960A9011940895C6
:101810000B946846FFF754F807200C900E940121B2
:101820000D950F940CA8FEF763FF10A81096129464
:10183000FEF7EAFE14B070BD13480168012211439F
:1018400001604168114A114041600168104A11402D
:1018500001600168012292049143016041683F22C6
:10186000120491434160C16A09090901C162016B17
:10187000FF22143291430163416B490849004163DF
:101880000021816070470000001002400CB8FF0882
:10189000FFFFF6FE10B5818CC90707D001684A68C2
:1018A00001235B049A43836A1A434A60818C890747
:1018B00007D501684A6801231B049A43C36A1A4387
:1018C0004A60818C490707D501684A6801239B0457
:1018D0009A43036B1A434A60818C090707D5016854
:1018E0004A680123DB039A43436B1A434A60818CA5
:1018F000C90607D50268916801231B039943836BCE
:1019000019439160818C890607D501688A68012393
:101910005B039A43C36B1A438A60818C490612D5D4
:1019200003685A6801210905046C8A4322435A60FE
:10193000026C8A4207D10268516803235B05994310
:10194000436C19435160818C090607D501684A68C8
:101950000123DB04806C9A4302434A6010BD0021DE
:10196000C16620226030427282720172084670475E
:10197000F8B504462369A268E6691A436369102131
:101980003343002026681A4333680546394F3B40ED
:101990001343336023685A6803263603B243E6686C
:1019A00032435A60236AA26926681A43B3680B2738
:1019B0003F02BB431343B3602F4A126B9207920F4F
:1019C00006D0012A08D0022A08D0032A07D101E054
:1019D000002104E0022102E0042100E008210122AC
:1019E000E369D203934224D100290CD002290DD0FF
:1019F000042913D0082917D001250109090100077E
:101A0000400F084332E0FEF70FFF09E061681B4A10
:101A100048088018FEF764FB80B2EEE7FEF714FF7B
:101A2000616840004A08F4E761680122480812042E
:101A3000EFE7002908D0022909D004290BD0082992
:101A40000ED001252846F8BDFEF7EEFE05E06168E0
:101A50000B4A480806E0FEF7F7FE61684A0801E015
:101A6000616848088018FEF73BFB80B22168C860B7
:101A7000E8E70000F369FFFF001002400024F400D3
:101A800000127A00FFB581B017460E4604460A9D43
:101A90001DE0681C1BD0002D05D0FEF75FFD0499EA
:101AA000401AA84213D920680168FF22A13291434D
:101AB0000160206881684908490081602020603405
:101AC0006072A07200202072032005B0F0BD206873
:101AD000C1693046884304D00020B842D9D00020E4
:101AE000F3E70120F9E702E008C8121F08C1002A45
:101AF000FAD170477047002001E001C1121F002A8F
:101B0000FBD1704770B500200346064D07E0CE5C60
:101B1000C4B2744064002C5B000A60405B1C9342BA
:101B2000F5DB70BD3C20000870B50546FEF716FDDC
:101B30000446FEF713FD001BA842FAD970BD000051
:101B4000F0B50E460025691E1F4F85B014460028CB
:101B500004D0012815D0022834D124E0402B12D122
:101B600040222146384600F031F83E227368214673
:101B700000209847E18F884201D0012522E000250E
:101B800020E0402B02D0084605B0F0BD3E2273682D
:101B9000214600209847E08740222146384600F041
:101BA00029F805460EE0FEF717FC00200090012002
:101BB0000290019603A96846FEF780FB002801D039
:101BC0000120E1E72846DFE7003C000810B5084C9B
:101BD0008318A34202D30020C04310BD002302E0BB
:101BE000C45CCC545B1C9342FAD3002010BD0000AF
:101BF00000400008F0B585B000911746064614492C
:101C00000025C019884202D3681E05B0F0BDFEF75A
:101C1000E3FB0020019001200390029604A901A893
:101C2000FEF74CFB002801D00120EEE700247F08DE
:101C300009E0009960000A5A811900230120FEF78B
:101C40008DFB4519641CA742F3D82846DDE7000048
:101C5000004000081CB56946087106480090064817
:101C60004A1D012301A9C068FFF75EF8694648795B
:101C70001CBD0000FFFF00000000002070B5194DE2
:101C8000044602212846FEF75DFC1749012804D0CE
:101C9000002048600120487070BD4878002811D0AD
:101CA0004868401C48607D21C9008842F4D9002260
:101CB00001212846FEF74BFC012202210B48FEF7CA
:101CC00046FCFEE78868401C886009498842E3D9E1
:101CD000002364691A4607490220A047FEF786FCE4
:101CE00070BD0000001400480000002000040048FF
:101CF00088130000003C000808B5FEF73DFCFFF724
:101D00006DFDFFF71BFAFFF77BFAFFF79BFA4448DC
:101D1000FEF744FA42482830FEF7BEFA4049404AEE
:101D2000FC3908462832D43000F084F83C4D3D4C54
:101D300002273D4E283D00280DD001221146304695
:101D4000FEF705FC7D263601A969304688476069A3
:101D500078406061F8E77D20A969C00088470022CB
:101D600002213048FEF7F3FB012211462E48FEF710
:101D7000EEFB0026FF222A4901325E316B6800200B
:101D800098470E28F6D12649284C5E310E22081AB3
:101D9000A660FEF7CCF922480C2201465031436878
:101DA000002098471E4950318A899042E2D1002A8A
:101DB000E0D06068401C6060322804D31948666037
:101DC00042697A4042614A89686A90421ED090B264
:101DD000020A69460A704870AA238B701018C870EE
:101DE0000F482830036804221148984700280DD175
:101DF000207800280AD101202070014600220A48DC
:101E0000FEF7A5FB7D20A96900018847044A074920
:101E10005032102314316C690020A047AAE700005B
:101E20004001002000040048001400481800002071
:101E3000003C0008F8B5244D16460446002903D09E
:101E4000E868002800D1E960204820602048A061AF
:101E5000204860602048E06120486061FFF758FB3F
:101E6000002802D00020C043F8BD736804226946F0
:101E70001B48984768468078AA281DD16846007894
:101E8000002819D069464978002915D06B464218B8
:101E9000DB78D2B29A420FD10B4A103210705170D7
:101EA000012121626946098849BA61626946497817
:101EB00040184006400E2870034829781030FFF77C
:101EC00078FB0020F8BD000000000020B11F0008D2
:101ED000291B0008991F00087D1C0008E51E00084A
:101EE000003C000830B504460020002C02D1102B25
:101EF00001D0401E30BDD3880C339B059B0D1C0ABE
:101F00008C73CB73138803240C339B059B0DA402A5
:101F10001B191C0A8C72CB72938801240C339B050D
:101F20009B0DA4021B191C0A8C70CB7053880124D2
:101F30000C339B059B0DE4021B191C0A8C71CB71A1
:101F40001389144C9B0B012B0BD023460525AD02A6
:101F50005B191D0A0D714B7113899B0403D50F2367
:101F600003E0AB23F2E701235B0201252D035B199C
:101F70001D0A0D724B721289D20400D5AB240322C4
:101F8000D202A218130A0B734A7300220A700222AB
:101F90004A7030BD5503000010B50C460120FFF714
:101FA0004BFB02492046FFF7CBF910BD1000002083
:101FB00070B515460C460020FFF73EFBE9B2034A18
:101FC0002046FFF71DFA002070BD00001000002021
:101FD00038B517480025C469002C05D000231A46DF
:101FE000194650300095A047124CA068411CA160D2
:101FF0007D21C900884207D9002202210E48FEF740
:10200000A6FA0120E06000E0E5602069411C216142
:1020100014280BD3E068002808D1431E0549044862
:102020001022143170382561FFF722F838BD000006
:102030001801002018000020000400480000C1C062
:1020400081C1400101C3C003800241C201C6C00674
:10205000800741C70005C1C581C4400401CCC00C44
:10206000800D41CD000FC1CF81CE400E000AC1CA04
:1020700081CB400B01C9C009800841C801D8C018F4
:10208000801941D9001BC1DB81DA401A001EC1DE74
:1020900081DF401F01DDC01D801C41DC0014C1D464
:1020A00081D5401501D7C017801641D601D2C01284
:1020B000801341D30011C1D181D0401001F0C03054
:1020C000803141F10033C1F381F240320036C1F674
:1020D00081F7403701F5C035803441F4003CC1FC44
:1020E00081FD403D01FFC03F803E41FE01FAC03A04
:1020F000803B41FB0039C1F981F840380028C1E834
:1021000081E9402901EBC02B802A41EA01EEC02E73
:10211000802F41EF002DC1ED81EC402C01E4C02463
:10212000802541E50027C1E781E640260022C1E283
:1021300081E3402301E1C021802041E001A0C06093
:10214000806141A10063C1A381A240620066C1A673
:1021500081A7406701A5C065806441A4006CC1AC43
:1021600081AD406D01AFC06F806E41AE01AAC06A03
:10217000806B41AB0069C1A981A840680078C1B8F3
:1021800081B9407901BBC07B807A41BA01BEC07E73
:10219000807F41BF007DC1BD81BC407C01B4C07463
:1021A000807541B50077C1B781B640760072C1B283
:1021B00081B3407301B1C071807041B00050C190D3
:1021C000819140510193C053805241920196C05673
:1021D000805741970055C19581944054019CC05C43
:1021E000805D419D005FC19F819E405E005AC19A03
:1021F000819B405B0199C059805841980188C04833
:1022000080494189004BC18B818A404A004EC18E72
:10221000818F404F018DC04D804C418C0044C18462
:10222000818540450187C047804641860182C04282
:10223000804341830041C181818040400000000013
:102240000000000001020304060708090000000066
:102250000102030474220008000000204400000072
:10226000E61A0008B8220008440000207C0600009E
:10227000F61A00083C00000000000000000000000A
:10228000000000000000A5A6A7000000000000005C
:10229000000000000000000000000000000000003E
:1022A00000020600160009FF12000E191B55000F50
:0822B0000000000000127A009A
:04000005080000B13E
:00000001FF
